:020000040800F2
:1000000000500020991600082D1300083513000831
:100010003D130008451300084D13000800000000C0
:100020000000000000000000000000005513000860
:1000300061130008000000006D1300087913000828
:10004000E1160008E1160008E1160008E1160008B4
:10005000E1160008E1160008E1160008E1160008A4
:10006000E1160008E1160008E1160008E116000894
:10007000E1160008E1160008E1160008E116000884
:10008000E1160008E1160008E1160008E116000874
:10009000E1160008E1160008E1160008E116000864
:1000A000E1160008E1160008E1160008E116000854
:1000B000E1160008E1160008E1160008E116000844
:1000C000E1160008E1160008E1160008E116000834
:1000D000E1160008E1160008E1160008E116000824
:1000E000E1160008E1160008E11600080000000013
:1000F0000000000000000000000000000000000000
:0C01000000000000000000005FF808F1A3
:10010C0010B5054C237833B9044B13B10448AFF345
:10011C0000800123237010BD5C0000200000000053
:10012C00FC48000808B5034B1BB103490348AFF367
:10013C00008008BD0000000060000020FC480008A2
:10014C00034613F8012B002AFBD1181A013870470B
:10015C0081F0004102E000BF83F0004330B54FEA6C
:10016C0041044FEA430594EA050F08BF90EA020FD9
:10017C001FBF54EA000C55EA020C7FEA645C7FEA6C
:10018C00655C00F0E2804FEA5454D4EB5555B8BF8F
:10019C006D420CDD2C4480EA020281EA030382EA00
:1001AC00000083EA010180EA020281EA0303362D92
:1001BC0088BF30BD11F0004F4FEA01314FF4801C65
:1001CC004CEA113102D0404261EB410113F0004F77
:1001DC004FEA03334CEA133302D0524263EB43032E
:1001EC0094EA050F00F0A780A4F10104D5F1200ECC
:1001FC000DDB02FA0EFC22FA05F2801841F1000127
:10020C0003FA0EF2801843FA05F359410EE0A5F1FA
:10021C0020050EF1200E012A03FA0EFC28BF4CF02B
:10022C00020C43FA05F3C01851EBE37101F00045E1
:10023C0007D54FF0000EDCF1000C7EEB00006EEBEE
:10024C000101B1F5801F1BD3B1F5001F0CD3490878
:10025C005FEA30004FEA3C0C04F101044FEA4452CF
:10026C0012F5800F80F09A80BCF1004F08BF5FEA56
:10027C00500C50F1000041EB045141EA050130BD36
:10028C005FEA4C0C404141EB0101013C28BFB1F548
:10029C00801FE9D291F0000F04BF01460020B1FA93
:1002AC0081F308BF2033A3F10B03B3F120020CDA66
:1002BC000C3208DD02F1140CC2F10C0201FA0CF044
:1002CC0021FA02F10CE002F11402D8BFC2F1200CA9
:1002DC0001FA02F120FA0CFCDCBF41EA0C0190405F
:1002EC00E41AA2BF01EB0451294330BD6FEA0404A8
:1002FC001F3C1CDA0C340EDC04F11404C4F1200293
:10030C0020FA04F001FA02F340EA030021FA04F3A4
:10031C0045EA030130BDC4F10C04C4F1200220FAFB
:10032C0002F001FA04F340EA0300294630BD21FA39
:10033C0004F0294630BD94F0000F83F4801306BFFF
:10034C0081F480110134013D4EE77FEA645C18BFF3
:10035C007FEA655C29D094EA050F08BF90EA020F8A
:10036C0005D054EA000C04BF1946104630BD91EA82
:10037C00030F1EBF0021002030BD5FEA545C05D185
:10038C004000494128BF41F0004130BD14F58004C4
:10039C003CBF01F5801130BD01F0004545F0FE4138
:1003AC0041F470014FF0000030BD7FEA645C1ABF6D
:1003BC00194610467FEA655C1CBF0B46024650EAA4
:1003CC00013406BF52EA033591EA030F41F40021D0
:1003DC0030BD00BF90F0000F04BF0021704730B556
:1003EC004FF4806404F132044FF000054FF000012B
:1003FC0050E700BF90F0000F04BF0021704730B5EC
:10040C004FF4806404F1320410F0004548BF4042C0
:10041C004FF000013EE700BF42004FEAE2014FEA15
:10042C0031014FEA02701FBF12F07F4393F07F4FF0
:10043C0081F06051704732F07F4208BF704793F0F3
:10044C007F4F04BF41F40021704730B54FF4607406
:10045C0001F0004521F000411CE700BF50EA010209
:10046C0008BF704730B54FF000050AE050EA0102B2
:10047C0008BF704730B511F0004502D5404261EB22
:10048C0041014FF4806404F132045FEA915C3FF463
:10049C00D8AE4FF003025FEADC0C18BF03325FEA00
:1004AC00DC0C18BF033202EBDC02C2F1200300FAB1
:1004BC0003FC20FA02F001FA03FE40EA0E0021FAD6
:1004CC0002F11444BDE600BF80F0004002E000BF22
:1004DC0081F0004142001FBF5FEA410392EA030F23
:1004EC007FEA226C7FEA236C6AD04FEA1262D2EB6D
:1004FC001363C1BFD218414048404140B8BF5B4272
:10050C00192B88BF704710F0004F40F4000020F00A
:10051C007F4018BF404211F0004F41F4000121F020
:10052C007F4118BF494292EA030F3FD0A2F101026A
:10053C0041FA03FC10EB0C00C3F1200301FA03F1A8
:10054C0000F0004302D5494260EB4000B0F5000FCB
:10055C0013D3B0F1807F06D340084FEA310102F18A
:10056C000102FE2A51D2B1F1004F40EBC25008BF3C
:10057C0020F0010040EA03007047490040EB000006
:10058C00013A28BFB0F5000FEDD2B0FA80FCACF107
:10059C00080CB2EB0C0200FA0CF0AABF00EBC25034
:1005AC0052421843BCBFD0401843704792F0000F22
:1005BC0081F4000106BF80F400000132013BB5E775
:1005CC004FEA41037FEA226C18BF7FEA236C21D0EB
:1005DC0092EA030F04D092F0000F08BF0846704750
:1005EC0090EA010F1CBF0020704712F07F4F04D11E
:1005FC00400028BF40F00040704712F100723CBF31
:10060C0000F50000704700F0004343F0FE4040F45A
:10061C00000070477FEA226216BF08467FEA236318
:10062C000146420206BF5FEA412390EA010F40F403
:10063C00800070474FF0000304E000BF10F000434F
:10064C0048BF40425FEA000C08BF704743F0964336
:10065C0001464FF000001CE050EA010208BF704751
:10066C004FF000030AE000BF50EA010208BF7047D8
:10067C0011F0004302D5404261EB41015FEA010CED
:10068C0002BF84460146002043F0B64308BFA3F1E5
:10069C008053A3F50003BCFA8CF2083AA3EBC253C7
:1006AC0010DB01FA02FC634400FA02FCC2F12002E6
:1006BC00BCF1004F20FA02F243EB020008BF20F01D
:1006CC000100704702F1200201FA02FCC2F1200283
:1006DC0050EA4C0021FA02F243EB020008BF20EA78
:1006EC00DC7070474FF0FF0C1CEAD0521EBF1CEAA6
:1006FC00D15392EA0C0F93EA0C0F6FD01A4480EA94
:10070C00010C400218BF5FEA41211ED04FF000637C
:10071C0043EA501043EA5111A0FB01310CF00040A8
:10072C00B1F5000F3EBF490041EAD3715B0040EACE
:10073C00010062F17F02FD2A1DD8B3F1004F40EB9E
:10074C00C25008BF20F00100704790F0000F0CF071
:10075C00004C08BF49024CEA502040EA51207F3A35
:10076C00C2BFD2F1FF0340EAC250704740F4000010
:10077C004FF00003013A5DDC12F1190FDCBF00F001
:10078C0000407047C2F10002410021FA02F1C2F1AF
:10079C00200200FA02FC5FEA310040F1000053EA4B
:1007AC004C0308BF20EADC70704792F0000F00F099
:1007BC00004C02BF400010F4000F013AF9D040EA9F
:1007CC000C0093F0000F01F0004C02BF490011F433
:1007DC00000F013BF9D041EA0C018FE70CEAD15331
:1007EC0092EA0C0F18BF93EA0C0F0AD030F0004CB1
:1007FC0018BF31F0004CD8D180EA010000F0004065
:10080C00704790F0000F17BF90F0004F084691F022
:10081C00000F91F0004F14D092EA0C0F01D142025C
:10082C000FD193EA0C0F03D14B0218BF084608D125
:10083C0080EA010000F0004040F0FE4040F400006F
:10084C00704740F0FE4040F4400070474FF0FF0C02
:10085C001CEAD0521EBF1CEAD15392EA0C0F93EA49
:10086C000C0F69D0A2EB030280EA010C49024FEA9B
:10087C00402037D04FF0805343EA111143EA101354
:10088C000CF000408B4238BF5B0042F17D024FF40C
:10089C00000C8B4224BF5B1A40EA0C00B3EB510FE7
:1008AC0024BFA3EB510340EA5C00B3EB910F24BFD0
:1008BC00A3EB910340EA9C00B3EBD10F24BFA3EB55
:1008CC00D10340EADC001B0118BF5FEA1C1CE0D11D
:1008DC00FD2A3FF650AF8B4240EBC25008BF20F0D0
:1008EC00010070470CF0004C4CEA50207F32C2BF24
:1008FC00D2F1FF0340EAC250704740F400004FF0C1
:10090C000003013A37E792F0000F00F0004C02BFF1
:10091C00400010F4000F013AF9D040EA0C0093F0BB
:10092C00000F01F0004C02BF490011F4000F013B15
:10093C00F9D041EA0C0195E70CEAD15392EA0C0F7D
:10094C0008D142027FF47DAF93EA0C0F7FF470AFB5
:10095C00084676E793EA0C0F04D14B023FF44CAFF8
:10096C0008466EE730F0004C18BF31F0004CCAD18D
:10097C0030F000427FF45CAF31F000437FF43CAFC9
:10098C005FE700BF4FF0FF3C06E000BF4FF0010CEB
:10099C0002E000BF4FF0010C4DF804CD4FEA4002CD
:1009AC004FEA41037FEA226C18BF7FEA236C11D017
:1009BC0001B052EA530C18BF90EA010F58BFB2EBCA
:1009CC00030088BFC81738BF6FEAE17018BF40F04A
:1009DC00010070477FEA226C02D15FEA402C05D1FE
:1009EC007FEA236CE4D15FEA412CE1D05DF8040B83
:1009FC00704700BF844608466146FFE70FB5FFF716
:100A0C00C9FF002848BF10F1000F0FBD4DF808EDCD
:100A1C00FFF7F4FF0CBF012000205DF808FB00BFBE
:100A2C004DF808EDFFF7EAFF34BF012000205DF818
:100A3C0008FB00BF4DF808EDFFF7E0FF94BF012065
:100A4C0000205DF808FB00BF4DF808EDFFF7D2FF62
:100A5C0094BF012000205DF808FB00BF4DF808EDA5
:100A6C00FFF7C8FF34BF012000205DF808FB00BF72
:100A7C0080B584B000AF3B1D00221A605A609A60AA
:100A8C00184B194A1A60174B00229A60154B012219
:100A9C001A73144B00221A75124B4FF46022DA6150
:100AAC00104B00225A600F4B01221A610D4800F0C6
:100ABC0099FE0346002B01D000F0FAFB01237B606A
:100ACC000123BB600023FB603B1D1946054801F068
:100ADC0041F90346002B01D000F0EAFB00BF1037B0
:100AEC00BD4680BD780000200024014080B588B050
:100AFC0000AF786007F1100300221A605A609A6008
:100B0C00DA607B681B68144A934221D1134B9B69B2
:100B1C00124A43F400739361104B9B6903F4007306
:100B2C00FB60FB680D4B9B690C4A43F0040393611B
:100B3C000A4B9B6903F00403BB60BB6806233B6153
:100B4C0003237B6107F110031946054801F06AFB8A
:100B5C0000BF2037BD4680BD00240140001002407C
:100B6C000008014080B588B000AF07F110030022E7
:100B7C001A605A609A60DA60234B9B69224A43F0F0
:100B8C0020039361204B9B6903F02003FB60FB68FF
:100B9C001D4B9B691C4A43F0040393611A4B9B69E0
:100BAC0003F00403BB60BB68174B9B69164A43F008
:100BBC0008039361144B9B6903F008037B607B680B
:100BCC0000223821114801F0C8FC38233B61012375
:100BDC007B610023BB610223FB6107F11003194603
:100BEC000A4801F01FFB03233B6100237B610123B7
:100BFC00BB6107F110031946054801F013FB00BF58
:100C0C002037BD4680BD00BF0010024000080140E7
:100C1C00000C014080B500AF124B134A1A60114B07
:100C2C00124A5A600F4B00229A600E4B0022DA6077
:100C3C000C4B4FF480421A610A4B00225A61094B4B
:100C4C0000229A61074B0022DA61064B00221A62DD
:100C5C00044801F0B3FC0346002B01D000F028FB44
:100C6C0000BF80BDA800002000540040A0860100F9
:100C7C0080B588B000AF786007F1100300221A60CD
:100C8C005A609A60DA607B681B68154A934223D1DC
:100C9C00144B9B69134A43F008039361114B9B69F6
:100CAC0003F00803FB60FB68C0233B6112237B61EC
:100CBC000323FB6107F1100319460B4801F0B2FA4C
:100CCC00084BDB69074A43F40013D361054BDB691E
:100CDC0003F40013BB60BB6800BF2037BD4680BD6A
:100CEC000054004000100240000C014080B485B05C
:100CFC0000AF78607B68DB00FB6000BFFB685A1EAE
:100D0C00FA60002BFAD100BF00BF1437BD4680BC7F
:100D1C00704780B582B000AF00F0F6F90346002BA7
:100D2C002DD0CC2000F02CFA442000F029FA0A2017
:100D3C0000F034FD00F0E8F9CC2000F021FABE20E0
:100D4C0000F01EFA00F06CFA0346FB7100F068FA32
:100D5C000346BB71BB791BB21B021AB2FB791BB2E7
:100D6C0013431BB2BB80BB881846FFF763FC0346DA
:100D7C004FF083411846FFF769FD034601E04FF041
:100D8C00000318460837BD4680BD000080B500AF93
:100D9C0000F0A2FC00F036F8FFF7E4FEFFF768FE67
:100DAC00FFF738FF00F052FB00F0FAFB002111486E
:100DBC0002F0F4FA04210F4802F0F0FA0E490F4841
:100DCC0003F0E6F80D48FFF7BBF903469AB264232B
:100DDC000A490B4802F079FE00F070F800F020F997
:100DEC0000F0C2F800F044F94FF4FA7000F0D6FCB1
:100DFC0000BFF1E740010020144900080801002061
:100E0C008001002080B594B000AF07F128032822A0
:100E1C000021184603F0DEF807F1140300221A60D3
:100E2C005A609A60DA601A613B1D00221A605A609F
:100E3C009A60DA600123BB624FF48033FB620023BB
:100E4C003B630123BB6302237B644FF48033BB649D
:100E5C004FF4E013FB6407F12803184601F0E2FCA1
:100E6C000346002B01D000F023FA0F237B610223F1
:100E7C00BB610023FB614FF480633B6200237B6208
:100E8C0007F114030221184601F04EFF0346002B14
:100E9C0001D000F00DFA02237B604FF40043FB609D
:100EAC003B1D184602F0D8F80346002B01D000F089
:100EBC00FFF900BF5037BD4680BD000080B500AFC4
:100ECC00FFF727FF0346214A1360214800F062FD1B
:100EDC000A211F4800F038FE0346002B06D11C489F
:100EEC0000F02CFF03469AB21A4B1A800A211848BC
:100EFC0000F02AFE0346002B06D1154800F01EFF19
:100F0C0003469AB2144B1A80114800F0F1FD0121EE
:100F1C00124801F00BFB0346002B0CD1C82000F04B
:100F2C003DFC0F4B1B78002B0CBF01230023DBB2C5
:100F3C001A460B4B1A700221084801F0F7FA0346C7
:100F4C001A46084B1A7000BF80BD00BFFC00002081
:100F5C00780000200001002002010020000C01405C
:100F6C00040100200501002098B500AF244B1B782C
:100F7C00002B42D1234B1B680122144622491846F0
:100F8C00FFF76CFD0346002B01D100231C46E3B296
:100F9C001A4608211D4801F0E0FA1D4B1B8840F24F
:100FAC00DB52934294BF01230023DBB21A4610217B
:100FBC00164801F0D2FA134B1B6816491846FFF776
:100FCC002FFD0346002B05D0134B1B684FF46172A9
:100FDC005A6303E0104B1B6800225A630F4B1B88AB
:100FEC00B3F57A7F05D20C4B1B684FF461729A6390
:100FFC0003E0094B1B6800229A6300BF98BD00BF39
:10100C0004010020FC0000200000F0410008014019
:10101C00020100200000A04140010020000100203E
:10102C0080B582B000AF0F4B1B78012B16D1F91D88
:10103C000A2301220C4802F0E1FD0346002B0DD1DE
:10104C00FB79462B03D10821084801F09EFAFB7965
:10105C00502B03D11021054801F097FA00BF083737
:10106C00BD4680BD04010020800100200008014025
:10107C00B0B584B004AF184B1B681846FFF7CCF919
:10108C0002460B46154909880C46154909880D4638
:10109C0014490978002901D0134900E01349144878
:1010AC000078002801D0134800E013480390029107
:1010BC00019500941149124802F06AFF1048FFF79D
:1010CC003FF803469AB264230D490E4802F0FDFC2A
:1010DC0000BFBD46B0BD00BFFC00002000010020D9
:1010EC0002010020040100202C49000830490008AE
:1010FC00050100203849000840490008484900080B
:10110C00080100208001002080B584B000AF3B4670
:10111C0000221A605A609A60DA6001233B60012356
:10112C007B600223FB603B461946144801F07AF8B9
:10113C0000220121114801F010FA4FF4F070FFF772
:10114C00D5FD00237B603B4619460C4801F06AF83C
:10115C005020FFF7CBFD0121084801F0E7F90346C9
:10116C00002B05D14FF4C870FFF7C0FD012300E040
:10117C00002318461037BD4680BD00BF0008014053
:10118C0080B588B000AF0346FB7107F10C03002259
:10119C001A605A609A60DA600123FB6001233B619C
:1011AC0007F10C0319461D4801F03CF80023FB61C4
:1011BC002BE0FA79FB6942FA03F303F00103002BED
:1011CC0010D000220121154801F0C7F90120FFF7CA
:1011DC008DFD01220121114801F0BFF93C20FFF7E0
:1011EC0085FD0FE0002201210C4801F0B6F93C20EE
:1011FC00FFF77CFD01220121084801F0AEF9012026
:10120C00FFF774FDFB690133FB61FB69072BD0DD34
:10121C0000BF00BF2037BD4680BD00BF00080140A5
:10122C0080B586B000AF0023FB7500233B6134E032
:10123C003B4600221A605A609A60DA6001233B60D8
:10124C0001237B603B461946184800F0EBFF002257
:10125C000121164801F081F90220FFF747FD002318
:10126C007B603B461946114800F0DCFF01210F481A
:10127C0001F05CF90346002B09D001223B6902FA0C
:10128C0003F35AB297F9173013435BB2FB753C204A
:10129C00FFF72CFD3B6901333B613B69072BC7DD35
:1012AC00FB7D18461837BD4680BD00BF00080140C5
:1012BC0080B400AF72B600BF00BFFDE780B485B04C
:1012CC0000AF154B9B69144A43F001039361124B19
:1012DC009B6903F00103BB60BB680F4BDB690E4AD3
:1012EC0043F08053D3610C4BDB6903F080537B607C
:1012FC007B680A4B5B68FB60FB6823F0E063FB6078
:10130C00FB6843F00073FB60044AFB68536000BF4A
:10131C001437BD4680BC70470010024000000140ED
:10132C0080B400AF00BFFDE780B400AF00BFFDE7A5
:10133C0080B400AF00BFFDE780B400AF00BFFDE795
:10134C0080B400AF00BFFDE780B400AF00BFBD4666
:10135C0080BC704780B400AF00BFBD4680BC7047F6
:10136C0080B400AF00BFBD4680BC704780B500AFF5
:10137C0000F0F8F900BF80BD80B586B000AF786092
:10138C00144A154BD31A7B617B693B61134B1B6869
:10139C00002B02D1114B124A1A60104B1A687B6851
:1013AC0013443A699A4207D202F01CFE03460C22FF
:1013BC001A604FF0FF3309E0084B1B68FB60074BCA
:1013CC001A687B681344054A1360FB681846183783
:1013DC00BD4680BD00500020000400003C010020F0
:1013EC001003002080B400AF154B1B68144A43F067
:1013FC0001031360124B5A681149124B13404B6096
:10140C000F4B1B680E4A23F0847323F48033136054
:10141C000B4B1B680A4A23F480231360084B5B6850
:10142C00074A23F4FE035360054B4FF41F029A60E6
:10143C00054B4FF000629A6000BFBD4680BC704700
:10144C00001002400000FFF800ED00E080B58AB00B
:10145C0000AF07F1200300221A605A603B1D0022E6
:10146C001A605A609A60DA601A615A619A61224B6A
:10147C00224A1A60204B47225A601F4B00229A6066
:10148C001D4B40F2E732DA601B4B00221A611A4BFB
:10149C0000229A61184801F055FF0346002B01D039
:1014AC00FFF706FF00233B6200237B6207F120035A
:1014BC001946114802F078FA0346002B01D0FFF7C9
:1014CC00F7FE60237B600023BB600023FB600023DE
:1014DC007B613B1D00221946074801F091FF034632
:1014EC00002B01D0FFF7E4FE034800F027F800BF03
:1014FC002837BD4680BD00BF4001002000040040DD
:10150C0080B485B000AF78607B681B68094A934251
:10151C000BD1094BDB69084A43F00203D361064B3C
:10152C00DB6903F00203FB60FB6800BF1437BD46A8
:10153C0080BC7047000400400010024080B588B0A9
:10154C0000AF786007F1100300221A605A609A60AD
:10155C00DA607B681B680F4A934217D10E4B9B696C
:10156C000D4A43F0040393610B4B9B6903F0040396
:10157C00FB60FB6840233B6102237B610223FB6120
:10158C0007F110031946054800F04CFE00BF203748
:10159C00BD4680BD00040040001002400008014020
:1015AC0080B500AF114B124A1A60104B4FF4E13268
:1015BC005A600E4B00229A600C4B0022DA600B4BE7
:1015CC0000221A61094B0C225A61084B00229A61C5
:1015DC00064B0022DA61054802F02AFA0346002B7A
:1015EC0001D0FFF765FE00BF80BD00BF8001002069
:1015FC000038014080B588B000AF786007F1100367
:10160C0000221A605A609A60DA607B681B681C4A78
:10161C00934231D11B4B9B691A4A43F4804393612B
:10162C00184B9B6903F48043FB60FB68154B9B696B
:10163C00144A43F004039361124B9B6903F00403B7
:10164C00BB60BB684FF400733B6102237B610323D7
:10165C00FB6107F1100319460B4800F0E3FD4FF452
:10166C0080633B6100237B610023BB6107F11003A6
:10167C001946054800F0D6FD00BF2037BD4680BD99
:10168C00003801400010024000080140002103E036
:10169C000B4B5B58435004310A480B4B42189A428F
:1016AC00F6D30A4A02E0002342F8043B084B9A4264
:1016BC00F9D3FFF797FE02F09BFCFFF767FB70472F
:1016CC00EC490008000000205C0000205C000020B9
:1016DC000C030020FEE7000080B500AF084B1B6830
:1016EC00074A43F010031360032000F067FD0F203E
:1016FC0000F008F8FFF7E2FD0023184680BD00BF9C
:10170C000020024080B582B000AF7860124B1A689E
:10171C00124B1B7819464FF47A73B3FBF1F3B2FBFF
:10172C00F3F3184600F071FD0346002B01D00123A2
:10173C000EE07B680F2B0AD8002279684FF0FF303F
:10174C0000F047FD064A7B681360002300E001238C
:10175C0018460837BD4680BD000000200800002058
:10176C000400002080B400AF054B1B781A46054BD3
:10177C001B681344034A136000BFBD4680BC70470E
:10178C0008000020C001002080B400AF024B1B6891
:10179C001846BD4680BC7047C001002080B584B09F
:1017AC0000AF7860FFF7F0FFB8607B68FB60FB6808
:1017BC00B3F1FF3F05D00A4B1B781A46FB68134464
:1017CC00FB6000BFFFF7E0FF0246BB68D31AFA6864
:1017DC009A42F7D800BF00BF1037BD4680BD00BF8E
:1017EC000800002080B586B000AF78600023FB7540
:1017FC0000233B610023BB600023FB607B68002B54
:10180C0001D10123BEE07B689B68002B7B689B6A3F
:10181C00002B09D17B680022DA627B68002283F8F6
:10182C0024207868FFF762F9786800F0DDFB034646
:10183C00FB757B689B6A03F01003002B40F09980CA
:10184C00FB7D002B40F095807B689B6A23F48853CA
:10185C0023F0020343F002027B689A627B685A68A9
:10186C007B68DB691A437B681B7B5B001343BA689C
:10187C001343BB607B689B68B3F5807F03D07B68A8
:10188C009B68012B02D14FF4807300E000233A696E
:10189C0013433B617B681B7D012B19D17B681B7B40
:1018AC00002B09D17B689B69013B5A033B691343AD
:1018BC0043F400633B610BE07B689B6A43F02002BE
:1018CC007B689A627B68DB6A43F001027B68DA62B0
:1018DC007B681B685B6823F469417B681B683A6909
:1018EC000A435A607B681B689A68284B13407A68D5
:1018FC001268B9680B4393607B689B68B3F5807F73
:10190C0003D07B689B68012B04D17B681B69013B6E
:10191C001B05FB607B681B68DB6A23F470017B682A
:10192C001B68FA680A43DA627B681B689A68184B72
:10193C001340BA689A420BD17B680022DA627B684A
:10194C009B6A23F0030343F001027B689A6218E060
:10195C007B689B6A23F0120343F010027B689A6247
:10196C007B68DB6A43F001027B68DA620123FB755A
:10197C0007E07B689B6A43F010027B689A62012344
:10198C00FB75FB7D18461837BD4680BDFDF7E1FFA2
:10199C00FE0E1FFF80B584B000AF78600023FB7390
:1019AC007B6893F82430012B01D1022398E07B68EB
:1019BC00012283F82420786800F0C4FA0346FB73F4
:1019CC00FB7B002B40F087807B689B6A23F4407381
:1019DC0023F0010343F480727B689A627B681B6876
:1019EC00414A934205D1414B5B6803F47023002BB1
:1019FC0015D17B689B6A23F480127B689A627B68A2
:101A0C001B685B6803F48063002B26D07B689B6AA1
:101A1C0023F4405343F480527B689A621DE07B6848
:101A2C009B6A43F480127B689A627B681B682F4A1E
:101A3C00934204D07B681B682B4A93420DD12B4BED
:101A4C005B6803F48063002B07D07B689B6A23F4EC
:101A5C00405343F480527B689A627B689B6A03F420
:101A6C008053002B06D07B68DB6A23F006027B6870
:101A7C00DA6202E07B680022DA627B68002283F87B
:101A8C0024207B681B686FF002021A607B681B685D
:101A9C009B6803F46023B3F5602F13D17B681B683C
:101AAC00114A934205D1114B5B6803F47023002B50
:101ABC0008D17B681B689A687B681B6842F4A0029B
:101ACC009A600CE07B681B689A687B681B6842F420
:101ADC0080129A6003E07B68002283F82420FB7B51
:101AEC0018461037BD4680BD002801400024014037
:101AFC0080B584B000AF78600023FB737B6893F8EB
:101B0C002430012B01D102231AE07B68012283F8D7
:101B1C002420786800F068FA0346FB73FB7B002BEB
:101B2C0009D17B689B6A23F4885323F0010343F0AB
:101B3C0001027B689A627B68002283F82420FB7B7D
:101B4C0018461037BD4680BD90B587B000AF7860A1
:101B5C00396000237B610023FB6000233B61FFF7AE
:101B6C0013FE78617B681B689B6803F48073002B01
:101B7C000BD07B689B6A43F020027B689A627B687F
:101B8C00002283F824200123C8E07B681B685B6873
:101B9C0003F48073002B2AD17B681B68DB6A03F487
:101BAC007003002B23D11AE03B68B3F1FF3F16D032
:101BBC003B68002B07D0FFF7E7FD02467B69D31A81
:101BCC003A689A420BD27B689B6A43F004027B68AA
:101BDC009A627B68002283F8242003239EE07B68B2
:101BEC001B681B6803F00203002BDDD06CE04D4B2F
:101BFC001C68022001F0E6FA0346B4FBF3F27B68A2
:101C0C001B681969484B0B40002B18D17B681B686B
:101C1C00D968464B0B40002B11D17B681B681969A6
:101C2C00434B0B40002B08D17B681B68D968414B98
:101C3C000B40002B01D1142320E029231EE07B68EC
:101C4C001B6819693A4B0B40002B06D17B681B684B
:101C5C00D968384B0B40002B0DD07B681B68196979
:101C6C00354B0B40002B08D17B681B68D968324B75
:101C7C000B40002B01D1542300E0FC2302FB03F3A7
:101C8C003B611DE03B68B3F1FF3F16D03B68002B76
:101C9C0007D0FFF779FD02467B69D31A3A689A425E
:101CAC000BD27B689B6A43F004027B689A627B6868
:101CBC00002283F82420032330E0FB680133FB600F
:101CCC00FB683A699A42DDD87B681B686FF0120298
:101CDC001A607B689B6A43F400727B689A627B682B
:101CEC001B689B6803F46023B3F5602F15D17B68E8
:101CFC001B7B002B11D17B689B6A23F480727B6861
:101D0C009A627B689B6A03F48053002B05D17B6835
:101D1C009B6A43F001027B689A62002318461C37C9
:101D2C00BD4690BD00000020244992242449920015
:101D3C0092244912922449004992240080B483B021
:101D4C0000AF78607B681B68DB6C18460C37BD46AF
:101D5C0080BC704780B485B000AF786039600023D8
:101D6C00FB730023BB607B6893F82430012B01D1FB
:101D7C000223DCE07B68012283F824203B685B684B
:101D8C00062B1CD87B681B68596B3B685A6813463A
:101D9C009B001344053B1F2202FA03F3DB4319405B
:101DAC003B6818683B685A6813469B001344053B14
:101DBC0000FA03F27B681B680A435A633CE03B68F9
:101DCC005B680C2B1CD87B681B68196B3B685A68CA
:101DDC0013469B001344233B1F2202FA03F3DB43FD
:101DEC0019403B6818683B685A6813469B001344BB
:101DFC00233B00FA03F27B681B680A431A631BE05F
:101E0C007B681B68D96A3B685A6813469B0013446D
:101E1C00413B1F2202FA03F3DB4319403B6818686D
:101E2C003B685A6813469B001344413B00FA03F28B
:101E3C007B681B680A43DA623B681B68092B1CD958
:101E4C007B681B68D9683B681A6813465B001344AF
:101E5C001E3B072202FA03F3DB4319403B689868E8
:101E6C003B681A6813465B0013441E3B00FA03F2EE
:101E7C007B681B680A43DA6019E07B681B68196988
:101E8C003B681A6813465B001344072202FA03F3FB
:101E9C00DB4319403B6898683B681A6813465B0043
:101EAC00134400FA03F27B681B680A431A613B680F
:101EBC001B68102B03D03B681B68112B32D17B683D
:101ECC001B681D4A934225D17B681B689B6803F4F1
:101EDC000003002B26D17B681B689A687B681B6803
:101EEC0042F400029A603B681B68102B1AD1134B0A
:101EFC001B68134AA2FB03239A0C13469B00134442
:101F0C005B00BB6002E0BB68013BBB60BB68002BA5
:101F1C00F9D107E07B689B6A43F020027B689A62E8
:101F2C000123FB737B68002283F82420FB7B18467B
:101F3C001437BD4680BC70470024014000000020CF
:101F4C0083DE1B4380B584B000AF78600023FB6058
:101F5C000023BB607B681B689B6803F00103012BAB
:101F6C0039D07B681B689A687B681B6842F0010259
:101F7C009A601B4B1B681B4AA2FB03239B0CBB6088
:101F8C0002E0BB68013BBB60BB68002BF9D1FFF7DB
:101F9C00FBFBF86018E0FFF7F7FB0246FB68D31A6F
:101FAC00022B11D97B689B6A43F010027B689A6202
:101FBC007B68DB6A43F001027B68DA627B68002293
:101FCC0083F82420012307E07B681B689B6803F0DF
:101FDC000103012BDFD1002318461037BD4680BD0D
:101FEC000000002083DE1B4380B584B000AF786016
:101FFC000023FB607B681B689B6803F00103012BCB
:10200C0027D17B681B689A687B681B6822F00102E9
:10201C009A60FFF7B9FBF86014E0FFF7B5FB0246D6
:10202C00FB68D31A022B0DD97B689B6A43F0100214
:10203C007B689A627B68DB6A43F001027B68DA6238
:10204C00012307E07B681B689B6803F00103012BED
:10205C00E3D0002318461037BD4680BD80B485B050
:10206C0000AF78607B6803F00703FB600C4BDB6808
:10207C00BB60BA684FF6FF031340BB60FB681A02E3
:10208C00BB68134343F0BF6343F40033BB60044AA3
:10209C00BB68D36000BF1437BD4680BC704700BF1F
:1020AC0000ED00E080B400AF044BDB681B0A03F0CA
:1020BC0007031846BD4680BC704700BF00ED00E02A
:1020CC0080B483B000AF03463960FB7197F90730D9
:1020DC00002B0ADB3B68DAB20C4997F90730120186
:1020EC00D2B20B4483F800230AE03B68DAB2084909
:1020FC00FB7903F00F03043B1201D2B20B441A76A6
:10210C0000BF0C37BD4680BC704700BF00E100E04B
:10211C0000ED00E080B489B000AFF860B9607A607F
:10212C00FB6803F00703FB61FB69C3F10703042B96
:10213C0028BF0423BB61FB690433062B02D9FB695E
:10214C00033B00E000237B614FF0FF32BB6902FAD6
:10215C0003F3DA43BB681A407B699A404FF0FF31B6
:10216C007B6901FA03F3D9437B680B401343184690
:10217C002437BD4680BC704780B582B000AF786014
:10218C007B68013BB3F1807F01D301230FE00A4A46
:10219C007B68013B53600F214FF0FF30FFF790FF3E
:1021AC00054B00229A60044B07221A600023184644
:1021BC000837BD4680BD00BF10E000E080B582B09E
:1021CC0000AF78607868FFF749FF00BF0837BD465D
:1021DC0080BD80B586B000AF0346B9607A60FB73F2
:1021EC0000237B61FFF75EFF78617A68B9687869D4
:1021FC00FFF790FF024697F90F3011461846FFF78C
:10220C005FFF00BF1837BD4680BD80B582B000AF00
:10221C0078607868FFF7B0FF034618460837BD466C
:10222C0080BD000080B48BB000AF786039600023B3
:10223C007B6200233B6269E101227B6A02FA03F3B1
:10224C00FB613B681B68FA691340BB61BA69FB69A7
:10225C009A4240F058813B685B689A4A93425ED040
:10226C00984A934275D8984A934258D0964A9342CA
:10227C006FD8964A934252D0944A934269D8944A62
:10228C0093424CD0924A934263D8924A934246D09E
:10229C00904A93425DD8122B2AD8122B59D801A2FE
:1022AC0052F823F02B2300080523000817230008FD
:1022BC00592300085F2300085F2300085F230008F0
:1022CC005F2300085F2300085F2300085F230008DA
:1022DC005F2300085F2300085F2300085F230008CA
:1022EC005F2300085F2300080D230008212300084A
:1022FC00794A934213D02CE03B68DB683B6229E0BF
:10230C003B68DB6804333B6224E03B68DB680833E2
:10231C003B621FE03B68DB680C333B621AE03B68B6
:10232C009B68002B02D104233B6213E03B689B6843
:10233C00012B05D108233B627B68FA691A6109E01D
:10234C0008233B627B68FA695A6103E000233B6215
:10235C0000E000BFBB69FF2B01D87B6801E07B6804
:10236C0004337B61BB69FF2B02D87B6A9B0002E0C4
:10237C007B6A083B9B003B617B691A680F213B69B8
:10238C0001FA03F3DB431A40396A3B6901FA03F3A0
:10239C001A437B691A603B685B6803F08053002B1F
:1023AC0000F0B1804D4B9B694C4A43F001039361A3
:1023BC004A4B9B6903F00103BB60BB68484A7B6ACC
:1023CC009B08023352F82330FB607B6A03F0030353
:1023DC009B000F2202FA03F3DB43FA681340FB6005
:1023EC007B68404A934213D07B683F4A93420DD09E
:1023FC007B683E4A934207D07B683D4A934201D1A9
:10240C00032306E0042304E0022302E0012300E09E
:10241C0000237A6A02F0030292009340FA68134395
:10242C00FB602F497B6A9B080233FA6841F8232032
:10243C003B685B6803F48033002B06D02D4B1A6885
:10244C002C49BB6913430B6006E02A4B1A68BB6925
:10245C00DB43284913400B603B685B6803F4003393
:10246C00002B06D0234B5A682249BB6913434B609F
:10247C0006E0204B5A68BB69DB431E4913404B6096
:10248C003B685B6803F48013002B06D0194B9A68E9
:10249C001849BB6913438B6006E0164B9A68BB69FD
:1024AC00DB43144913408B603B685B6803F40013F7
:1024BC00002B21D00F4BDA680E49BB691343CB605C
:1024CC0021E000BF0000321000003110000022108B
:1024DC00000021100000121000001110001002402A
:1024EC000000014000080140000C014000100140B8
:1024FC0000140140000401400B4BDA68BB69DB435C
:10250C0009491340CB607B6A01337B623B681A68D4
:10251C007B6A22FA03F3002B7FF48EAE00BF00BF60
:10252C002C37BD4680BC70470004014080B485B098
:10253C0000AF78600B467B807B689A687B88134081
:10254C00002B02D00123FB7301E00023FB73FB7B08
:10255C0018461437BD4680BC704780B483B000AFBA
:10256C0078600B467B8013467B707B78002B03D006
:10257C007A887B681A6103E07B881A047B681A618D
:10258C0000BF0C37BD4680BC704780B483B000AF31
:10259C0078600B467B807B68DA687B881340002B65
:1025AC0003D07A887B685A6102E07A887B681A616A
:1025BC0000BF0C37BD4680BC7047000080B584B0AE
:1025CC0000AF78607B68002B01D101231BE17B6895
:1025DC0093F83D30DBB2002B06D17B68002283F8E8
:1025EC003C207868FEF744FB7B68242283F83D206E
:1025FC007B681B681A687B681B6822F001021A60F2
:10260C0000F0E4FCF8607B685B68814A934207D871
:10261C00FB68804A934294BF01230023DBB206E09F
:10262C00FB687D4A934294BF01230023DBB2002B4D
:10263C0001D00123E7E0FB68784AA2FB03239B0C43
:10264C00BB607B681B685B6823F03F017B681B6881
:10265C00BA680A435A607B681B681B6A23F03F0107
:10266C007B685B686A4A934202D8BB68013309E015
:10267C00BB684FF4967202FB03F3694AA2FB032377
:10268C009B0901337A6812680B4313627B681B68E1
:10269C00DB6923F44F4222F0FF027B685B685C49E4
:1026AC008B4219D8FB68591E7B685B685B00B1FBD9
:1026BC00F3F3591C40F6FC730B40002B0AD0FB685B
:1026CC00591E7B685B685B00B1FBF3F30133C3F30A
:1026DC000B0351E004234FE07B689B68002B11D166
:1026EC00FB68581E7B6859680B465B000B44B0FBBB
:1026FC00F3F30133C3F30B03002B0CBF01230023B3
:10270C00DBB212E0FB68581E7B6859680B469B00D5
:10271C000B4499000B44B0FBF3F30133C3F30B03ED
:10272C00002B0CBF01230023DBB2002B01D00123B3
:10273C0022E07B689B68002B0ED1FB68581E7B68DF
:10274C0059680B465B000B44B0FBF3F30133C3F346
:10275C000B0343F400430FE0FB68581E7B68596879
:10276C000B469B000B4499000B44B0FBF3F3013375
:10277C00C3F30B0343F44043796809681343CB61FB
:10278C007B681B681B6823F0C0017B68DA697B6877
:10279C001B6A1A437B681B680A431A607B681B68B8
:1027AC009B6823F4034323F0FF037A6811697A686A
:1027BC00D26811437A6812680B4393607B681B687C
:1027CC00DB6823F0FF017B685A697B689B691A43BD
:1027DC007B681B680A43DA607B681B681A687B6835
:1027EC001B6842F001021A607B6800221A647B6845
:1027FC00202283F83D207B6800221A637B6800222C
:10280C0083F83E20002318461037BD4680BD00BF1C
:10281C00A08601007F841E00FF083D0083DE1B4361
:10282C00D34D621080B586B000AF78607B68002B0A
:10283C0001D1012372E27B681B6803F00103002BBA
:10284C0000F08780924B5B6803F00C03042B0CD0D8
:10285C008F4B5B6803F00C03082B12D18C4B5B681D
:10286C0003F48033B3F5803F0BD1894B1B6803F421
:10287C000033002B6CD07B685B68002B68D1012384
:10288C004CE27B685B68B3F5803F06D1804B1B68DC
:10289C007F4A43F4803313602EE07B685B68002B27
:1028AC000CD17B4B1B687A4A23F480331360784B32
:1028BC001B68774A23F4802313601DE07B685B68F8
:1028CC00B3F5A02F0CD1724B1B68714A43F48023D3
:1028DC0013606F4B1B686E4A43F4803313600BE03C
:1028EC006B4B1B686A4A23F480331360684B1B687C
:1028FC00674A23F4802313607B685B68002B13D03A
:10290C00FEF742FF386108E0FEF73EFF02463B69E6
:10291C00D31A642B01D9032300E25D4B1B6803F42B
:10292C000033002BF0D014E0FEF72EFF386108E0E6
:10293C00FEF72AFF02463B69D31A642B01D9032305
:10294C00ECE1534B1B6803F40033002BF0D100E097
:10295C0000BF7B681B6803F00203002B63D04C4B59
:10296C005B6803F00C03002B0BD0494B5B6803F046
:10297C000C03082B1CD1464B5B6803F48033002BF3
:10298C0016D1434B1B6803F00203002B05D07B6868
:10299C001B69012B01D00123C0E13D4B1B6823F0C7
:1029AC00F8027B685B69DB00394913430B603AE042
:1029BC007B681B69002B20D0364B01221A60FEF776
:1029CC00E3FE386108E0FEF7DFFE02463B69D31AEE
:1029DC00022B01D90323A1E12D4B1B6803F0020349
:1029EC00002BF0D02A4B1B6823F0F8027B685B6944
:1029FC00DB00274913430B6015E0264B00221A60BD
:102A0C00FEF7C2FE386108E0FEF7BEFE02463B69E7
:102A1C00D31A022B01D9032380E11D4B1B6803F051
:102A2C000203002BF0D17B681B6803F00803002B1A
:102A3C003AD07B689B69002B19D0174B01221A6086
:102A4C00FEF7A2FE386108E0FEF79EFE02463B69E7
:102A5C00D31A022B01D9032360E10D4B5B6A03F0FF
:102A6C000203002BF0D0012000F0D8FA1CE00A4B36
:102A7C0000221A60FEF788FE38610FE0FEF784FE34
:102A8C0002463B69D31A022B08D9032346E100BF47
:102A9C00001002400000424280044242924B5B6AAA
:102AAC0003F00203002BE9D17B681B6803F00403DD
:102ABC00002B00F0A6800023FB758B4BDB6903F029
:102ACC008053002B0DD1884BDB69874A43F0805330
:102ADC00D361854BDB6903F08053BB60BB6801237A
:102AEC00FB75824B1B6803F48073002B18D17F4B52
:102AFC001B687E4A43F480731360FEF745FE386111
:102B0C0008E0FEF741FE02463B69D31A642B01D95B
:102B1C00032303E1754B1B6803F48073002BF0D087
:102B2C007B68DB68012B06D16F4B1B6A6E4A43F046
:102B3C00010313622DE07B68DB68002B0CD16A4B20
:102B4C001B6A694A23F001031362674B1B6A664ACE
:102B5C0023F0040313621CE07B68DB68052B0CD1AB
:102B6C00614B1B6A604A43F0040313625E4B1B6AA1
:102B7C005D4A43F0010313620BE05B4B1B6A5A4A3C
:102B8C0023F001031362584B1B6A574A23F00403CA
:102B9C0013627B68DB68002B15D0FEF7F5FD3861FE
:102BAC000AE0FEF7F1FD02463B69D31A41F2883286
:102BBC00934201D90323B1E04B4B1B6A03F0020390
:102BCC00002BEED014E0FEF7DFFD38610AE0FEF7D3
:102BDC00DBFD02463B69D31A41F28832934201D99C
:102BEC0003239BE0404B1B6A03F00203002BEED146
:102BFC00FB7D012B05D13C4BDB693B4A23F0805319
:102C0C00D3617B68DB69002B00F08780364B5B68F7
:102C1C0003F00C03082B61D07B68DB69022B46D1D7
:102C2C00334B00221A60FEF7AFFD386108E0FEF767
:102C3C00ABFD02463B69D31A022B01D903236DE08D
:102C4C00294B1B6803F00073002BF0D17B681B6AC7
:102C5C00B3F5803F08D1244B5B6823F400327B68CA
:102C6C009B68214913434B601F4B5B6823F4741220
:102C7C007B68196A7B685B6A0B431B4913434B6087
:102C8C001B4B01221A60FEF77FFD386108E0FEF74E
:102C9C007BFD02463B69D31A022B01D903233DE08D
:102CAC00114B1B6803F00073002BF0D035E0104B78
:102CBC0000221A60FEF768FD386108E0FEF764FD3B
:102CCC0002463B69D31A022B01D9032326E0064B9B
:102CDC001B6803F00073002BF0D11EE07B68DB69EE
:102CEC00012B07D1012319E00010024000700040B5
:102CFC00600042420B4B5B68FB60FB6803F4803264
:102D0C007B681B6A9A4206D1FB6803F470127B68DD
:102D1C005B6A9A4201D0012300E000231846183761
:102D2C00BD4680BD0010024080B584B000AF786015
:102D3C0039607B68002B01D10123D0E06A4B1B6802
:102D4C0003F007033A689A4210D9674B1B6823F0CB
:102D5C00070265493B6813430B60634B1B6803F028
:102D6C0007033A689A4201D00123B8E07B681B68DC
:102D7C0003F00203002B20D07B681B6803F00403D4
:102D8C00002B05D0594B5B68584A43F4E063536001
:102D9C007B681B6803F00803002B05D0534B5B6862
:102DAC00524A43F460535360504B5B6823F0F0027B
:102DBC007B689B684D4913434B607B681B6803F031
:102DCC000103002B40D07B685B68012B07D1474B7C
:102DDC001B6803F40033002B15D101237FE07B68C3
:102DEC005B68022B07D1414B1B6803F00073002B6F
:102DFC0009D1012373E03D4B1B6803F00203002B48
:102E0C0001D101236BE0394B5B6823F003027B6833
:102E1C005B68364913434B60FEF7B6FCF8600AE07A
:102E2C00FEF7B2FC0246FB68D31A41F28832934299
:102E3C0001D9032353E02D4B5B6803F00C027B6834
:102E4C005B689B009A42EBD1274B1B6803F007038E
:102E5C003A689A4210D2244B1B6823F0070222498D
:102E6C003B6813430B60204B1B6803F007033A6865
:102E7C009A4201D0012332E07B681B6803F0040303
:102E8C00002B08D0194B5B6823F4E0627B68DB688D
:102E9C00164913434B607B681B6803F00803002B37
:102EAC0009D0124B5B6823F460527B681B69DB0012
:102EBC000E4913434B6000F021F802460B4B5B6844
:102ECC001B0903F00F030A49CB5C22FA03F3094AEE
:102EDC001360094B1B681846FEF714FC00231846B8
:102EEC001037BD4680BD00BF0020024000100240DC
:102EFC0090490008000000200400002090B48AB023
:102F0C0000AF294B3C1D0FCB84E80F0040F201238E
:102F1C003B800023FB610023BB6100237B62002309
:102F2C007B6100233B62214B5B68FB61FB6903F017
:102F3C000C03042B02D0082B03D02BE01C4B3B6260
:102F4C002BE0FB699B0C03F00F0328333B4413F875
:102F5C00243C7B61FB6903F48033002B12D0134BB0
:102F6C005B685B0C03F0010328333B4413F8283CEB
:102F7C00BB617B690E4A03FB02F2BB69B2FBF3F344
:102F8C007B6204E07B690B4A02FB03F37B627B6A86
:102F9C003B6202E0064B3B6200BF3B6A1846283797
:102FAC00BD4690BC704700BF70490008001002403D
:102FBC0000127A0000093D0080B400AF024B1B6880
:102FCC001846BD4680BC70470000002080B500AF9D
:102FDC00FFF7F2FF0246054B5B681B0A03F0070381
:102FEC000349CB5C22FA03F3184680BD0010024063
:102FFC00A049000880B500AFFFF7DEFF0246054B85
:10300C005B68DB0A03F007030349CB5C22FA03F38A
:10301C00184680BD00100240A049000880B485B05D
:10302C0000AF78600A4B1B680A4AA2FB03235B0AB9
:10303C007A6802FB03F3FB6000BFFB685A1EFA6060
:10304C00002BF9D100BF00BF1437BD4680BC7047C0
:10305C0000000020D34D621080B586B000AF7860C0
:10306C0000233B610023FB607B681B6803F00103BA
:10307C00002B7DD00023FB754F4BDB6903F0805395
:10308C00002B0DD14C4BDB694B4A43F08053D36181
:10309C00494BDB6903F08053BB60BB680123FB75B4
:1030AC00464B1B6803F48073002B18D1434B1B68F1
:1030BC00424A43F480731360FEF766FB386108E004
:1030CC00FEF762FB02463B69D31A642B01D903233A
:1030DC006DE03A4B1B6803F48073002BF0D0364B39
:1030EC001B6A03F44073FB60FB68002B2ED07B68DB
:1030FC005B6803F44073FA689A4227D02E4B1B6A24
:10310C0023F44073FB602E4B01221A602C4B0022DF
:10311C001A60294AFB681362FB6803F00103002B59
:10312C0014D0FEF731FB38610AE0FEF72DFB0246A6
:10313C003B69D31A41F28832934201D9032336E01A
:10314C001D4B1B6A03F00203002BEED01A4B1B6ABB
:10315C0023F440727B685B68174913430B62FB7D59
:10316C00012B05D1144BDB69134A23F08053D36137
:10317C007B681B6803F00203002B08D00E4B5B68C6
:10318C0023F440427B689B680B4913434B607B687C
:10319C001B6803F01003002B08D0074B5B6823F46B
:1031AC0080027B68DB68044913434B60002318469C
:1031BC001837BD4680BD00BF0010024000700040B3
:1031CC004004424290B58DB000AF7860584B07F187
:1031DC000C040FCB84E80F0040F201233B81002349
:1031EC007B620023FB6200233B620023FB61002314
:1031FC00BB627B68102B0AD07B68102B00F28E8090
:10320C007B68012B49D07B68022B79D086E0494B37
:10321C005B68FB61474B1B6803F08073002B7FD00E
:10322C00FB699B0C03F00F0330333B4413F8243C35
:10323C003B62FB6903F48033002B17D03D4B5B687A
:10324C005B0C03F0010330333B4413F8283C7B62E6
:10325C00FB6903F48033002B0DD0374A7B6AB2FB39
:10326C00F3F23B6A02FB03F3FB6204E03B6A334A72
:10327C0002FB03F3FB622F4B5B6803F48003B3F593
:10328C00800F02D1FB6ABB624AE0FB6A5B002C4AEE
:10329C00A2FB03235B08BB6242E0264B1B6AFB616B
:1032AC00FB6903F44073B3F5807F08D1FB6903F02D
:1032BC000203002B03D04FF40043BB621FE0FB69F9
:1032CC0003F44073B3F5007F09D11A4B5B6A03F02A
:1032DC000203002B03D049F64043BB620FE0FB69AD
:1032EC0003F44073B3F5407F1CD1124B1B6803F4FD
:1032FC000033002B16D04FF22443BB6212E011E0D6
:10330C00FFF778FE02460B4B5B689B0B03F0030345
:10331C0001335B00B2FBF3F3BB6204E000BF02E0DD
:10332C0000BF00E000BFBB6A18463437BD4690BDF5
:10333C00804900080010024000127A0000093D008C
:10334C00ABAAAAAA80B582B000AF78607B68002BCC
:10335C0001D101231DE07B6893F83D30DBB2002BDB
:10336C0006D17B68002283F83C207868FEF7C8F809
:10337C007B68022283F83D207B681A687B680433E3
:10338C001946104600F002F97B68012283F83D20B3
:10339C00002318460837BD4680BD000080B584B0B8
:1033AC0000AF786039607B681B6801223968184669
:1033BC0000F0D6FA7B681B68104A934207D17B68F1
:1033CC001B685A6C7B681B6842F400425A647B6829
:1033DC001B689B6803F00703FB60FB68062B07D098
:1033EC007B681B681A687B681B6842F001021A60D4
:1033FC00002318461037BD4680BD00BF002C01408D
:10340C0080B584B000AFF860B9607A60FB6893F85F
:10341C003C30012B01D10223B4E0FB68012283F87C
:10342C003C20FB68022283F83D207B680C2B00F2C9
:10343C009F8001A252F823F0793400087D350008F2
:10344C007D3500087D350008B93400087D3500084D
:10345C007D3500087D350008FB3400087D350008FB
:10346C007D3500087D3500083B350008FB681B687E
:10347C00B968184600F0ECF8FB681B689A69FB68A1
:10348C001B6842F008029A61FB681B689A69FB682A
:10349C001B6822F004029A61FB681B689969BB687F
:1034AC001A69FB681B680A439A6162E0FB681B6837
:1034BC00B968184600F032F9FB681B689A69FB681A
:1034CC001B6842F400629A61FB681B689A69FB688E
:1034DC001B6822F480629A61FB681B689969BB685F
:1034EC001B691A02FB681B680A439A6141E0FB687E
:1034FC001B68B968184600F07BF9FB681B68DA6931
:10350C00FB681B6842F00802DA61FB681B68DA6929
:10351C00FB681B6822F00402DA61FB681B68D9693E
:10352C00BB681A69FB681B680A43DA6121E0FB6817
:10353C001B68B968184600F0C5F9FB681B68DA69A6
:10354C00FB681B6842F40062DA61FB681B68DA698D
:10355C00FB681B6822F48062DA61FB681B68D9691E
:10356C00BB681B691A02FB681B680A43DA6100E03E
:10357C0000BFFB68012283F83D20FB68002283F822
:10358C003C20002318461037BD4680BD80B485B062
:10359C0000AF786039607B681B68FB607B68294AE8
:1035AC0093420BD07B68B3F1804F07D07B68264ADF
:1035BC00934203D07B68254A934208D1FB6823F0E1
:1035CC007003FB603B685B68FA681343FB607B68C5
:1035DC001C4A93420BD07B68B3F1804F07D07B68B9
:1035EC00194A934203D07B68184A934208D1FB686E
:1035FC0023F44073FB603B68DB68FA681343FB60A1
:10360C00FB6823F080023B685B691343FB607B68BB
:10361C00FA681A603B689A687B68DA623B681A68D9
:10362C007B689A627B68074A934203D13B681A69AC
:10363C007B681A637B6801225A6100BF1437BD4650
:10364C0080BC7047002C0140000400400008004082
:10365C0080B487B000AF786039607B681B6A23F058
:10366C0001027B681A627B681B6A7B617B685B6802
:10367C003B617B689B69FB60FB6823F07003FB601C
:10368C00FB6823F00303FB603B681B68FA68134379
:10369C00FB607B6923F002037B613B689B687A6962
:1036AC0013437B617B681C4A93420CD17B6923F0EA
:1036BC0008037B613B68DB687A6913437B617B6938
:1036CC0023F004037B617B68134A934211D13B695D
:1036DC0023F480733B613B6923F400733B613B68CB
:1036EC005B693A6913433B613B689B693A691343D5
:1036FC003B617B683A695A607B68FA689A613B68FF
:10370C005A687B685A637B687A691A6200BF1C37F7
:10371C00BD4680BC704700BF002C014080B487B010
:10372C0000AF786039607B681B6A23F010027B68FD
:10373C001A627B681B6A7B617B685B683B617B6898
:10374C009B69FB60FB6823F4E043FB60FB6823F49C
:10375C004073FB603B681B681B02FA681343FB60F9
:10376C007B6923F020037B613B689B681B017A69B2
:10377C0013437B617B681D4A93420DD17B6923F017
:10378C0080037B613B68DB681B017A6913437B61B7
:10379C007B6923F040037B617B68144A934213D10D
:1037AC003B6923F480633B613B6923F400633B6119
:1037BC003B685B699B003A6913433B613B689B69BF
:1037CC009B003A6913433B617B683A695A607B689A
:1037DC00FA689A613B685A687B689A637B687A6975
:1037EC001A6200BF1C37BD4680BC7047002C0140DC
:1037FC0080B487B000AF786039607B681B6A23F4B3
:10380C0080727B681A627B681B6A7B617B685B6871
:10381C003B617B68DB69FB60FB6823F07003FB603A
:10382C00FB6823F00303FB603B681B68FA681343D7
:10383C00FB607B6923F400737B613B689B681B0214
:10384C007A6913437B617B681D4A93420DD17B6976
:10385C0023F400637B613B68DB681B027A691343CA
:10386C007B617B6923F480637B617B68144A9342A0
:10387C0013D13B6923F480533B613B6923F4005320
:10388C003B613B685B691B013A6913433B613B68D5
:10389C009B691B013A6913433B617B683A695A6027
:1038AC007B68FA68DA613B685A687B68DA637B6824
:1038BC007A691A6200BF1C37BD4680BC704700BFD6
:1038CC00002C014080B487B000AF786039607B6811
:1038DC001B6A23F480527B681A627B681B6A3B610B
:1038EC007B685B687B617B68DB69FB60FB6823F44E
:1038FC00E043FB60FB6823F44073FB603B681B6890
:10390C001B02FA681343FB603B6923F400533B61D1
:10391C003B689B681B033A6913433B617B680F4A06
:10392C00934209D17B6923F480437B613B685B69DB
:10393C009B017A6913437B617B687A695A607B6867
:10394C00FA68DA613B685A687B681A647B683A6982
:10395C001A6200BF1C37BD4680BC7047002C01406A
:10396C0080B487B000AFF860B9607A60BB6803F0D0
:10397C001F03012202FA03F37B61FB681A6A7B695D
:10398C00DB431A40FB681A62FB681A6ABB6803F0D7
:10399C001F03796801FA03F31A43FB681A6200BF2C
:1039AC001C37BD4680BC704780B485B000AF7860D2
:1039BC0039607B6893F83C30012B01D1022332E053
:1039CC007B68012283F83C207B68022283F83D202F
:1039DC007B681B685B68FB607B681B689B68BB60D3
:1039EC00FB6823F07003FB603B681B68FA681343A9
:1039FC00FB60BB6823F08003BB603B685B68BA6804
:103A0C001343BB607B681B68FA685A607B681B6851
:103A1C00BA689A607B68012283F83D207B6800229B
:103A2C0083F83C20002318461437BD4680BC7047F1
:103A3C0080B582B000AF78607B68002B01D1012388
:103A4C003FE07B6893F83930DBB2002B06D17B6802
:103A5C00002283F838207868FDF7CCFD7B6824229F
:103A6C0083F839207B681B68DA687B681B6822F452
:103A7C000052DA60786800F0B1F97B681B681A694B
:103A8C007B681B6822F490421A617B681B685A6938
:103A9C007B681B6822F02A025A617B681B68DA6813
:103AAC007B681B6842F40052DA607B680022DA63A0
:103ABC007B68202283F839207B68202283F83A2007
:103ACC00002318460837BD4680BD80B588B002AFCC
:103ADC00F860B9603B601346FB8000237B61FB6898
:103AEC0093F83930DBB2202B40F08380BB68002B7D
:103AFC0002D0FB88002B01D101237BE0FB6893F8FB
:103B0C003830012B01D1022374E0FB68012283F8C9
:103B1C003820FB680022DA63FB68212283F8392005
:103B2C00FDF732FE7861FB68FA889A84FB68FA88A4
:103B3C00DA8442E0FB68DB8C9BB2013B9AB2FB68F7
:103B4C00DA84FB689B68B3F5805F22D13B680093F5
:103B5C007B6900228021F86800F0F6F80346002B00
:103B6C0001D0032346E0BB683B613B691B881A46C6
:103B7C00FB681B68C2F308025A60FB681B69002BC8
:103B8C0003D1BB680233BB6017E0BB680133BB6079
:103B9C0013E03B6800937B6900228021F86800F0F9
:103BAC00D3F80346002B01D0032323E0BB685A1C37
:103BBC00BA601A78FB681B685A60FB68DB8C9BB296
:103BCC00002BB7D13B6800937B6900224021F86839
:103BDC0000F0BAF80346002B01D003230AE0FB687F
:103BEC00202283F83920FB68002283F83820002338
:103BFC0000E0022318461837BD4680BD80B588B05A
:103C0C0002AFF860B9603B601346FB8000237B6118
:103C1C00FB6893F83A30DBB2202B40F09080BB6805
:103C2C00002B02D0FB88002B01D1012388E0FB681C
:103C3C0093F83830012B01D1022381E0FB6801227B
:103C4C0083F83820FB680022DA63FB68222283F8B1
:103C5C003A20FDF799FD7861FB68FA889A85FB6834
:103C6C00FA88DA855CE0FB68DB8D9BB2013B9AB28B
:103C7C00FB68DA85FB689B68B3F5805F2BD13B68EA
:103C8C0000937B6900222021F86800F05DF8034660
:103C9C00002B01D0032353E0BB683B61FB681B691D
:103CAC00002B0CD1FB681B685B689BB2C3F3080349
:103CBC009AB23B691A80BB680233BB6030E0FB6888
:103CCC001B685B689BB2DBB29AB23B691A80BB681B
:103CDC000133BB6024E03B6800937B690022202108
:103CEC00F86800F031F80346002B01D0032327E0DD
:103CFC00FB681B69002B08D1FB681B685968BB6803
:103D0C005A1CBA60CAB21A700AE0FB681B685B687E
:103D1C00DAB2BB68591CB96002F07F02D2B21A70D9
:103D2C00FB68DB8D9BB2002B9DD1FB68202283F8B6
:103D3C003A20FB68002283F83820002300E002239D
:103D4C0018461837BD4680BD80B584B000AFF8600A
:103D5C00B9603B601346FB712CE0BB69B3F1FF3FCC
:103D6C0028D0BB69002B07D0FDF70EFD02463B683F
:103D7C00D31ABA699A421DD2FB681B68DA68FB68D1
:103D8C001B6822F4D072DA60FB681B685A69FB6806
:103D9C001B6822F001025A61FB68202283F839204B
:103DAC00FB68202283F83A20FB68002283F8382035
:103DBC0003230FE0FB681B681A68BB681340BA68E2
:103DCC009A420CBF01230023DBB21A46FB799A42BC
:103DDC00C3D0002318461037BD4680BD80B584B0D3
:103DEC0000AF78607B681B681B6923F440517B68CB
:103DFC00DA687B681B680A431A617B689A687B687F
:103E0C001B691A437B685B691343FB607B681B6807
:103E1C00DB6823F4B05323F00C037A681268F9685A
:103E2C000B43D3607B681B685B6923F440717B6830
:103E3C009A697B681B680A435A617B681B68524A03
:103E4C0093424ED1FFF7D6F8B860BA6813469B0080
:103E5C0013449A001A447B685B689B00B2FBF3F333
:103E6C004A4AA2FB03235B091901BA6813469B005B
:103E7C0013449A001A447B685B689B00B2FBF3F214
:103E8C00424BA3FB02035B09642000FB03F3D31A30
:103E9C001B0132333D4AA2FB03235B0903F0F00301
:103EAC001944BA6813469B0013449A001A447B6861
:103EBC005B689B00B2FBF3F2344BA3FB02035B0980
:103ECC00642000FB03F3D31A1B0132332F4AA2FBED
:103EDC0003235B0903F00F027B681B680A449A609A
:103EEC004DE0FFF773F8B860BA6813469B001344B3
:103EFC009A001A447B685B689B00B2FBF3F3234A7D
:103F0C00A2FB03235B091901BA6813469B001344F7
:103F1C009A001A447B685B689B00B2FBF3F21B4B64
:103F2C00A3FB02035B09642000FB03F3D31A1B0100
:103F3C003233164AA2FB03235B0903F0F003194446
:103F4C00BA6813469B0013449A001A447B685B685A
:103F5C009B00B2FBF3F20D4BA3FB02035B09642045
:103F6C0000FB03F3D31A1B013233084AA2FB0323D1
:103F7C005B0903F00F027B681B680A449A6000BF60
:103F8C001037BD4680BD00BF003801401F85EB5186
:103F9C000EB46FF0004110B500249DB01FAB029021
:103FAC000690079104910948094953F8042B05918F
:103FBC00006802A901931B9400F092F9029B1C70FB
:103FCC001DB0BDE8104003B0704700BF0C000020CE
:103FDC000802FFFF03460244934200D1704703F8E6
:103FEC00011BF9E7014B1868704700BF0C0000205B
:103FFC0070B500260C4D0D4C641BA410A64209D1C3
:10400C0000F076FC00260A4D0A4C641BA410A64254
:10401C0005D170BD55F8043B98470136EEE755F8CD
:10402C00043B98470136F2E7E4490008E4490008EC
:10403C00E4490008E84900087047704738B5054660
:10404C00002940D051F8043C0C1F002BB8BFE418D9
:10405C0000F0DEF81C4A136833B96360146028461C
:10406C00BDE8384000F0DAB8A34208D9206821181E
:10407C008B4201BF19685B6809182160EDE71A468D
:10408C005B680BB1A342FAD911685018A0420BD14E
:10409C0020680144501883421160E0D118685B68B5
:1040AC00084410605360DAE702D90C232B60D6E782
:1040BC00206821188B4201BF19685B6809182160C0
:1040CC0063605460CBE738BD0803002070B50F4E19
:1040DC000C463168054611B900F0A8FB306021464A
:1040EC00284600F0A3FB431C03D14FF0FF342046BD
:1040FC0070BDC41C24F00304A042F8D0211A284639
:10410C0000F094FB0130F2D1EFE700BF0403002074
:10411C002DE9F843CD1C25F0030508350C2D38BFCF
:10412C000C25002D064601DBA94204D90C23336073
:10413C000020BDE8F883DFF8D48000F069F8D8F8E7
:10414C0000301C4644BB29463046FFF7BFFF431CDA
:10415C00044658D1D8F800402746002F43D1002CF4
:10416C004BD023683946304604EB030900F05EFB64
:10417C00814542D1216830466D1A2946FFF7A6FFCA
:10418C0001303AD023682B442360D8F800305A68A9
:10419C0062BBC8F800700FE02268521B20D40B2AB7
:1041AC0017D96119A342256018BF5960636808BF0D
:1041BC00C8F8001062514B60304600F02FF804F143
:1041CC000B00231D20F00700C21A1CBF1B1AA350A2
:1041DC00AFE76268A3420CBFC8F800205A60EBE757
:1041EC0023466468AEE73C467F68B6E71A465B68D0
:1041FC00A342FBD100235360DEE70C23304633602F
:10420C0000F00CF894E70560D6E700BF0803002027
:10421C000148FFF711BF00BF000300200148FFF762
:10422C000CBF00BF000300202DE9F0471F468E682D
:10423C008246BE420C4690460B682DD8B1F90C2034
:10424C0012F4906F26D06569096905EB4505A3EB5F
:10425C00010905EBD5757B1C4B446D109D4238BF95
:10426C001D46530527D52946FFF752FF064660B376
:10427C004A46216900F0F8FAA38923F4906343F0CD
:10428C008003A38126614E4426603E466561A5EB02
:10429C000905A560BE4200D93E463246414620681B
:1042AC0000F0AAFA0020A3689B1BA3602368334488
:1042BC002360BDE8F0872A4600F0E4FA06460028A1
:1042CC00E0D150462169FFF7B9FE0C23CAF8003043
:1042DC00A3894FF0FF3043F04003A381E9E70000CE
:1042EC002DE9F04F98468B8907461B060D46144660
:1042FC009DB010D50B6973B94021FFF709FF2860F9
:10430C00286130B90C233B604FF0FF301DB0BDE885
:10431C00F08F40236B610023099320238DF8293003
:10432C0030234FF00109CDF80C80DFF898818DF81F
:10433C002A3023469A4613F8012B0AB1252AF9D1C3
:10434C00BAEB040B0BD05B46224629463846FFF7E6
:10435C006BFF013000F0A780099A5A4409929AF831
:10436C000030002B00F09F8000234FF0FF32CDE98E
:10437C0005230AF1010A049307938DF853301A931D
:10438C005446052214F8011B4E4800F05FFA049ABB
:10439C00D8B9D00644BF20238DF85330110744BF41
:1043AC002B238DF853309AF800302A2B15D0544615
:1043BC0000204FF00A0C079A214611F8013B303BC4
:1043CC00092B4BD9B0B1079214E0A0EB080309FA02
:1043DC0003F31343A2460493D2E7039B191D1B68F6
:1043EC000391002BBBBF5B4242F002020793079381
:1043FC00B8BF049223782E2B0AD163782A2B32D1A2
:10440C00039B02341A1D1B68039243EAE373059362
:10441C00DFF8B4A003225046217800F017FA38B127
:10442C004022049BA0EB0A00824013430134049306
:10443C0014F8011B062225488DF8281000F006FA06
:10444C00002836D0224B1BBB039B073323F00703FA
:10445C0008330393099B334409936AE70C46012004
:10446C000CFB0232A8E700234FF00A0C194601346A
:10447C000593204610F8012B303A092A03D9002B5A
:10448C00C6D00591C4E7044601230CFB0121F0E7DB
:10449C0003AB00932A4638460E4B04A9AFF30080B9
:1044AC00421C0646D6D1AB895B063FF52DAF099869
:1044BC002CE703AB00932A463846064B04A900F0C0
:1044CC007DF8EDE7A8490008AE490008B24900089C
:1044DC0000000000354200082DE9F04716469846CA
:1044EC008A680B6907469342B8BF1346336091F84C
:1044FC0043200C46DDF820900AB101333360236869
:10450C00990642BF336802333360256815F00605FF
:10451C0006D104F1190AE36832689B1AAB422BDC12
:10452C0094F843302268003B18BF0123920630D424
:10453C004146384604F14302C847013023D0236872
:10454C00226903F00603042B14BF002533684FF0D7
:10455C00000608BFE56804F11A0408BFED1A54F808
:10456C00123C08BF25EAE5759342C4BF9B1AED18AF
:10457C00B5421AD1002008E0012352464146384684
:10458C00C847013003D14FF0FF30BDE8F08701354B
:10459C00C1E73020E11881F843005A1C94F845100B
:1045AC002244023382F84310C2E7012322464146DB
:1045BC003846C8470130E6D00136D9E72DE9FF4728
:1045CC000F7E9146782F80460C469A460C9E01F140
:1045DC00430207D8622F0AD8002F00F0D180582F41
:1045EC0000F0B88004F1420684F842703AE0A7F17A
:1045FC006303152BF6D801A151F823F0614600088E
:10460C0075460008F1450008F1450008F145000821
:10461C00F145000875460008F1450008F145000811
:10462C00F1450008F1450008734700089F46000853
:10463C002D470008F1450008F14500089547000892
:10464C00F14500089F460008F1450008F1450008B7
:10465C003547000833681A1D1B68326004F14206A6
:10466C0084F8423001239CE033682068191D3160C6
:10467C00060601D51D6803E04506FBD5B3F90050CD
:10468C00002D03DA2D236D4284F843300A23584859
:10469C0011E021683368080653F8045B02D449061C
:1046AC0048BFADB26F2F336014BF0A2308235048A4
:1046BC00002184F843106668002EA66005DB216893
:1046CC002E4321F0040121604BD01646B5FBF3F1CB
:1046DC0003FB1157C75D06F8017D2F46BB420D4603
:1046EC00F4D9082B0BD12368DF0708D5236961683F
:1046FC009942DEBF302306F8013C06F1FF36921BCF
:10470C0022614B4621464046CDF800A003AAFFF794
:10471C00E3FE01304AD14FF0FF3004B0BDE8F08722
:10472C00236843F0200323607827324884F84570CF
:10473C00236831681F0651F8045B02D45F0648BF3A
:10474C00ADB23160D90744BF43F0200323601DB1E3
:10475C001023ADE72648E9E7236823F02003236004
:10476C00F6E71646BDE733682568181D61693060A9
:10477C002E061B6801D5196002E06806FBD519806E
:10478C00002316462361BCE7336800211A1D3260F2
:10479C001E686268304600F059F808B1801B6060F2
:1047AC0063682361002384F84330AAE73246494604
:1047BC0040462369D0470130ADD023689B0713D402
:1047CC00E068039B9842B8BF1846A6E7012332461F
:1047DC0049464046D04701309DD00135E3680399E6
:1047EC005B1AAB42F2DCEBE7002504F11906F5E7A6
:1047FC00B9490008CA490008884210B501EB020407
:10480C0002D98442234607D8431EA14208D011F88E
:10481C00012B03F8012FF8E7014602448A4200D12C
:10482C0010BD13F8014D02F8014DF7E738B5002320
:10483C00054D044608462B60FCF79EFD431C02D137
:10484C002B6803B1236038BDFC020020034610B571
:10485C00C9B202449342184601D1002003E0047807
:10486C0001338C42F6D110BD0A44914200F1FF3362
:10487C0000D1704710B511F8014B914203F8014F6C
:10488C00F9D110BD2DE9F041074614460D4621B96A
:10489C001146BDE8F041FFF73BBC2AB9FFF7CEFB50
:1048AC0025462846BDE8F08100F01AF884420646F9
:1048BC0002D8B4EB500FF4D821463846FFF728FC49
:1048CC00804608B94546ECE7B4422246294628BF43
:1048DC003246FFF7C9FF29463846FFF7AFFBF1E731
:1048EC0051F8043C181F002BBCBF0B58C018704764
:1048FC00F8B500BFF8BC08BC9E467047F8B500BFC1
:08490C00F8BC08BC9E46704790
:1049140053797374656D20496E697469616C697A41
:1049240065642E2E2E0D0A004D414E004155544F04
:10493400000000004F50454E00000000434C4F5310
:104944004500000054656D703A252E3166204C3ABE
:10495400256420533A2564204D6F64653A257320FD
:10496400446F6F723A25730D0A00000002030405B8
:10497400060708090A0B0C0D0E0F1010020304059C
:10498400060708090A0B0C0D0E0F1010000000009A
:1049940000000000010203040607080900000000EB
:1049A40001020304232D302B2000686C4C00656643
:1049B400674546470030313233343536373839416C
:1049C4004243444546003031323334353637383982
:0849D400616263646566000086
:0849DC0070B7FF7F010000002D
:0449E4003101000895
:0449E8000D010008B5
:1049EC000024F40010000000010000001000002062
:1049FC0000000000C40100202C02002094020020C2
:104A0C00000000000000000000000000000000009A
:104A1C00000000000000000000000000000000008A
:104A2C00000000000000000000000000000000007A
:0C4A3C000000000000000000000000006E
:040000050800169940
:00000001FF
